:020000040800F2
:10000000800400209D0100085F130008830F000892
:100010005D13000885020008891400080000000034
:100020000000000000000000000000008313000832
:1000300087020008000000008113000885130008F3
:10004000B7010008B7010008B7010008B7010008B0
:10005000B7010008B7010008B7010008B7010008A0
:10006000B7010008B7010008B7010008B701000890
:10007000B7010008B7010008B7010008B701000880
:10008000B7010008B7010008B7010008B701000870
:10009000B7010008B7010008B7010008B701000860
:1000A000B7010008B7010008B7010008B701000850
:1000B000B7010008B7010008B7010008B701000840
:1000C000B7010008B7010008B7010008B701000830
:1000D000B7010008B7010008B7010008B701000820
:1000E000B7010008B7010008B7010008B701000810
:1000F000B7010008B7010008B7010008B701000800
:10010000B7010008B7010008B7010008B7010008EF
:10011000B7010008B7010008B7010008B7010008DF
:10012000B7010008B7010008B7010008B7010008CF
:10013000B7010008B7010008B7010008B7010008BF
:10014000B7010008B7010008B7010008B7010008AF
:10015000B7010008B7010008B7010008B70100089F
:10016000B7010008B7010008B7010008B70100088F
:10017000B7010008B7010008B7010008000000003F
:10018000B7010008B7010008DFF80CD000F068F8EC
:1001900000480047591500088004002006488047A1
:1001A00006480047FEE7FEE7FEE7FEE7FEE7FEE75C
:1001B000FEE7FEE7FEE7FEE73514000889010008C8
:1001C0002DE9F05F0546002092469B46884606468C
:1001D000814640241BE0284641464746224600F01F
:1001E0002FF853465A46C01A914110D3114618466B
:1001F000224600F016F82D1A67EB01084F462246FA
:100200000120002100F00DF817EB00094E41201EDF
:10021000A4F10104DFDC484631462A464346BDE8E6
:10022000F09F202A04DB203A00FA02F100207047F8
:100230009140C2F1200320FA03F319439040704724
:10024000202A04DB203A21FA02F00021704721FA2B
:1002500002F3D040C2F12002914008431946704792
:10026000064C074D06E0E06840F0010394E8070003
:1002700098471034AC42F6D3FFF78AFF48170008BE
:1002800068170008FEE7704770B5044600F0E6F80E
:100290000546601C02D004480078044400F0DEF8F3
:1002A000401BA042FAD370BD1C0000202DE9F84F7E
:1002B000DFF87CB100224FF001084FF0030A4FF045
:1002C0000F090BF1040E00BF0B6808FA02F423407B
:1002D000A3426ED14D68022D01D0122D0ED1D5084A
:1002E00000EB850CDCF820505607F70E09FA07F6EC
:1002F000B5430E69BE402E43CCF820600668550019
:100300000F790AFA05FC07F0030726EA0C06AF404E
:10031000374307604E68012E05D0022E03D0112E00
:1003200001D0122E0ED18668CF6826EA0C06AF40A7
:10033000374387604668A6430C79C4F300149440A1
:1003400034434460C6688C6826EA0C06AC403443EB
:10035000C4604C68E40065D5364C256845F480459A
:100360002560246822F0030504F480440094324C94
:100370002E19D6F8084895072F0F09FA07F5AC4350
:100380002E4DA84201D1002524E02D4DA84201D1D7
:1003900001251FE02B4DA84201D102251AE02A4D6C
:1003A000A84201D1032515E0284DA84202D1042519
:1003B00010E037E0264DA84201D105250AE0254D81
:1003C000A84201D1062505E0234DA84201D1072509
:1003D00000E00825BD402543C6F80858DBF800407A
:1003E0005D464E689C43F60300D51C432C60DEF846
:1003F000004075464E689C43B60300D51C432C60F4
:100400000B4D08352C684E689C43F60200D51C4302
:100410002C60074D0C352C684E689C43B60200D505
:100420001C432C60521C102AFFF44EAFBDE8F88F1D
:10043000003C0140443802400030014000000240CE
:100440000004024000080240000C0240001002407C
:100450000014024000180240001C0240014880685D
:10046000704700001C00002070B5040004D094F810
:100470003D00002510B106E0012070BD84F83C501D
:10048000204600F011FA242084F83D00206801681D
:1004900021F00101016000F081FB33492268B0FBCB
:1004A000F1F15160314A6368934206D94FF4967373
:1004B00059434FF47A73B1FBF3F12368491C196275
:1004C000616891420BD84900B0FBF1F2C2F30B0214
:1004D000042A01D2042019E0B0FBF1F016E0A36871
:1004E0009BB301EBC10202EB0112B0FBF2F242F44A
:1004F0008042120530D04BB301EBC10202EB011177
:10050000B0FBF1F040F4804040F400402168C86145
:10051000D4E90701084321680860D4E903100843BF
:1005200021688860D4E9050108432168C860206813
:10053000016841F0010101602564202084F83D003C
:10054000256384F83E50002070BD00E006E001EB1A
:100550004102B0FBF2F2CCE70120D7E701EB410109
:10056000B0FBF1F0D0E7000040420F00A086010090
:100570002DE9FF4F83B09A46DDE911879346044683
:10058000DDF84090FFF76AFF054694F83D0020280B
:1005900074D11923012272492046009500F0F5FD1F
:1005A0000028F5D194F83C00012867D0012084F898
:1005B0003C0020680168C90703D1016841F00101CE
:1005C00001602068016821F400610160222084F844
:1005D0003D00402084F83E0000262664C4F82490A4
:1005E000A4F82A805F48E062608D2085CDE900751F
:1005F00053465A462046049900F0D8FC28B1206C96
:1006000084F83C60042843D076E0208DC8B10128EE
:1006100020D00228206823D0416980690090208D75
:1006200003286BD801282AD04F4902283B464FF0B7
:10063000000200955BD08846204600F0A6FDE8BB8E
:1006400040E02068416981690091016841F40071CE
:10065000016076E02068016821F480610160F0E7C4
:10066000016821F4806101602068016841F4006143
:100670000160206841698069009062E06EE02A466E
:100680003946204600F0F6FD30B1206C202833D0EA
:10069000012007B0BDE8F08F206847E020680168BE
:1006A00041F40071016020680169606A421C626265
:1006B0000170208D401E2085608D00E01CE0401EF2
:1006C0006085E9E72068016821F4806101602068A5
:1006D0000169606A421C62620170208D401E2085A3
:1006E000608D401E60853B460022414600952046B5
:1006F00000F04BFD0028D1D00320CAE72A46394636
:10070000204600F0B7FD0028BFD120680169606A6B
:10071000421C62620170208D401E2085608D401E4B
:10072000608520684169C94349070AD40169606A44
:10073000421C62620170208D401E2085608D401E2B
:100740006085208D00287FF46AAF202084F83D006A
:1007500084F83E6084F83C6000209AE7022098E725
:10076000020010000000FFFF040001002DE9FF4F10
:1007700083B09A46DDE9118793460446DDF8409040
:10078000FFF76CFE064694F83D0020287DD1192322
:10079000012243492046009600F0F7FC00287CD156
:1007A00094F83C00012878D0012084F83C002068AF
:1007B0000168C90703D1016841F0010101602068A7
:1007C000016821F400610160212084F83D0040208F
:1007D00084F83E0000252564C4F82490A4F82A80FB
:1007E0003048E062608D2085CDE9007653465A4658
:1007F0002046049900F052FC80B3206C84F83C50F1
:10080000042848D008E032463946204600F063FD0F
:1008100030B1206C042839D0032007B0BDE8F08F38
:10082000606A411C6162216800780861208D401E69
:1008300080B22085618D491E618521684A69D24355
:1008400052070BD468B1606A421C6262007808618A
:10085000208D401E2085608D401E6085208D0028E3
:10086000D1D132463946204600F068FC0028D0D16C
:1008700054F83D0B016841F400710160202004F838
:100880001E09E57765770020C7E706E02068016864
:1008900041F4007101600120BFE70220BDE70000C4
:1008A000020010000000FFFF00B500680E4987B08D
:1008B000884216D1C02000901220019001200290A1
:1008C000032003900420049069460848FFF7EEFCDB
:1008D0000748016841F400110160006800F400104D
:1008E000059007B000BD0000005400400004024025
:1008F00040380240024881680278114481607047A4
:100900001C0000200B4810B5016841F40071016023
:10091000016841F480610160016841F48071016007
:10092000032000F08BF8002000F006F800F024F817
:10093000002010BD003C024070B50D4D04464FF440
:100940007A712878B1FBF0F00A490968B1FBF0F040
:1009500000F0FFFA48B9102C07D200222146501EA1
:1009600000F04CF800206C6070BD012070BD0000EC
:100970001C000020280000201F4808B5016841F431
:1009800080410160006800F4804000901A48001F18
:10099000016841F080510160006800F080500090D3
:1009A000032000F04BF8002211466FF00B0000F01E
:1009B00025F8002211466FF00A0000F01FF800220F
:1009C00011466FF0090000F019F800221146501F7F
:1009D00000F014F800221146101F00F00FF800225A
:1009E0001146901E00F00AF80022BDE808401146AA
:1009F000501E00F003B8000044380240F0B40E4B23
:100A00001B680C46C3F30223C3F10705042D00D96C
:100A10000425191D072901D2002300E0DB1E012651
:100A200006FA05F1491E214099409E40761E164067
:100A30003143F0BC00F094BC0CED00E0064900F03E
:100A4000070208684FF6FF03184040EA0220034AF5
:100A500010430860704700000CED00E00000FA054C
:100A60002DE9F0470E46050065D0DFF81481D8F86F
:100A70000000F7B200F00F00B04207D288F8007013
:100A8000D8F8000000F00F00B04254D128683D4C67
:100A9000810712D5400703D5206840F4E05020605C
:100AA0002878000703D5206840F460402060206863
:100AB000A96820F0F000084320602878C0072DD0F6
:100AC000304968680839012812D0022813D0032859
:100AD00011D00968890700292DDA216821F0030166
:100AE00001432160FFF7BAFC814641F2883A0EE0EB
:100AF00009688903EFE709688901ECE7FFF7AEFCB5
:100B0000A0EB0901514502D90320BDE8F087206818
:100B1000696800F00C00B0EB810FEFD1D8F800103D
:100B2000404601F00F01B14207D90770006800F09C
:100B30000F00B04201D00120E7E72878400705D533
:100B40002068E96820F4E050084320602878000716
:100B500006D52068296920F4604040EAC100206081
:100B600000F02CF82168084AC1F30311515CC84019
:100B7000064908600020FFF7DFFE0020C5E70000FF
:100B8000003C0240083802403017000828000020CE
:100B9000014800687047000028000020044805490B
:100BA00000680968044AC1F38221515CC84070475B
:100BB000280000200838024040170008154810B5EA
:100BC000006810F00C02144813D04110042A0FD012
:100BD000082A0ED10F4C241F2268236802F03F021E
:100BE0005B0207D52068C0F38810A0FB010106E076
:100BF000084610BD2168C1F38811A1FB0001002344
:100C0000FFF7DEFA2168C1F30141491C4900B0FB3E
:100C1000F1F010BD083802400024F4002DE9F84F2F
:100C2000050076D02878DFF8F8B2BE4CC00749D06E
:100C3000DBF800105846C1F38101012908D0006893
:100C4000C0F3810002280AD1201D0068400206D5A9
:100C50002068800336D568680028E2D032E06868F2
:100C6000B0F5803F10D0B0F5A02F206810D020F450
:100C700080302060206820F4802020606868A0B167
:100C8000FFF7ECFB06460CE0206840F48030F4E708
:100C900040F480202060F7E7FFF7E0FB801B64282A
:100CA00073D820688003F7D50CE0FFF7D7FB064622
:100CB00005E000BFFFF7D2FB801B6428F0D8206856
:100CC0008003F7D42878DFF8608280074FF00009AE
:100CD0003ED5DBF80010584611F00C0F09D0006823
:100CE000C0F3810002280BD18D48001F006840022C
:100CF00006D42068800715D5E868012809D111E0DD
:100D0000E868B8B10120C8F80000FFF7A7FB064665
:100D100005E002E1FFF7A2FB801B0228C0D8206893
:100D20008007F7D52068296920F0F80040EAC10063
:100D300020600DE0C8F80090FFF790FB064604E045
:100D4000FFF78CFB801B02281FD820688007F7D490
:100D50002878000722D5724E744869696C3671B1E3
:100D600001210160FFF77AFB074604E0FFF776FBFD
:100D7000C01B022809D830688007F7D50EE0C0F8FC
:100D80000090FFF76BFB074605E083E0FFF766FB8B
:100D9000C01B02287ED830688007F7D42878400727
:100DA00068D5DFF87CA100270AF1380ADAF80000DC
:100DB000C0000BD4DAF8001041F08051CAF80010DE
:100DC000DAF80000012700F080500090584E30689B
:100DD000C00510D4306840F480703060FFF73EFBEF
:100DE000009005E0FFF73AFB0099401A022851D81D
:100DF0003068C005F6D54A4EA868683601280FD07D
:100E00000528306810D020F001003060306820F0F4
:100E100004003060A868B8B1FFF720FB00900FE035
:100E2000306840F00100F4E740F004003060F7E77C
:100E3000FFF714FB0099411A41F28830814264D8CF
:100E400030688007F4D50EE0FFF708FB009007E05C
:100E5000FFF704FB0099411A41F28830814254D8CF
:100E600030688007F4D42FB1DAF8001021F08051F7
:100E7000CAF80010A869C0B3DBF80010C1F3810103
:100E800002294AD00228484607D0C8F86000FFF778
:100E9000E5FA00E039E005463AE04746C8F8600068
:100EA000FFF7DCFA064604E0FFF7D8FA801B0228B9
:100EB0002BD820688001F7D4D5E907010843A96A37
:100EC0001C4A490802EB01416A6A41EA821108435F
:100ED00095F82C1040EA01611148001F01600120C3
:100EE0003866FFF7BBFA054605E014E0FFF7B6FAEF
:100EF000401B022809D820688001F7D50BE000BF0D
:100F0000FFF7ACFA401B022802D90320BDE8F88F96
:100F100020688001F4D40020F8E70120F6E7000003
:100F2000083802400038024000004742800E474225
:100F3000007000400000FFFF4FF0E0210428086926
:100F400003D020F004000861704740F00400FAE785
:100F5000704710B5401EB0F1807F01D3012010BD55
:100F60004FF0E02460610F21601700F0F9F90020D4
:100F7000A06107202061002010BD10B5FFF7E8FF39
:100F800010BDFEE701684A69D24352050CD46FF4E4
:100F900080624A6104210164002140F8301F202250
:100FA0004273017301207047002070472DE9F84F0C
:100FB0000446006889460B9D01689846174641F42F
:100FC000806101602068016841F4807101600095D2
:100FD0004FF0011A0022514620460A9B00F0D5F836
:100FE000F0BB216809F0FE0008610AF1010B2B46F5
:100FF000594620460A9A00F0F9F818B1206C0428E6
:1010000012D03AE020684169806900902A46204663
:101010000A9900F060F950B1206C04282DD12068A5
:10102000016841F4007101600120BDE8F88FFEB253
:10103000B8F1010F09D02168380A08612A46204614
:101040000A9900F048F90028E6D1206806612A468E
:1010500020460A9900F03FF90028DDD1206800E021
:101060000BE0016841F48071016000950022514657
:1010700020460A9B00F089F808B10320D5E72168D3
:1010800009F0FF0040F0010008612B465946204658
:101090000A9A00F0ABF80028B0D1C6E72DE9F84372
:1010A000044600680D46DDE9089701689846164633
:1010B00041F4807101604B4600224FF0011120463F
:1010C000009700F062F8E8B9216805F0FE000861B9
:1010D0003B464A461849204600F088F828B1206C63
:1010E00004280FD10120BDE8F88320684169806998
:1010F00000903A464946204600F0EDF820B1206CB9
:10110000042813D00320EEE7F5B2B8F1010F09D09F
:101110002168300A08613A464946204600F0DBF86B
:101120000028ECD1206805610020DCE72068016818
:1011300041F400710160D5E70200010070B5164668
:101140000D4604461AE02046FFF71CFF08B10120B7
:1011500070BD681C12D025B1FFF780F9801BA84232
:101160000CD954F8400F40F0200044F8100900203A
:101170002060202161732073032070BD20684069C6
:10118000C0434007DFD4002070BD2DE9F0471E4664
:1011900090460D460446C1F30747DDF8209012E063
:1011A000701C10D02EB1FFF759F9A0EB0900B04226
:1011B00009D9002044F8300F20216173A0732073F7
:1011C0000320BDE8F0872068012F0AD0806925EA56
:1011D00000000004000C06D000214145E0D00020B2
:1011E000EFE74069F3E70121F7E700002DE9F04759
:1011F0009A4691460D46044600264FF02008C1F35A
:1012000007472AE020684069C043400512D420689F
:10121000016841F40071016021686FF480604861E9
:1012200004202064266384F83D8084F83C6001201B
:10123000BDE8F087B9F1FF3F0FD0B9F1000F05D03D
:10124000FFF70CF9A0EB0A01494506D944F8306FC5
:1012500084F80D8026730320EAE72068012F07D069
:10126000D0F8180025EA00000004000CE0D0C9E71F
:101270004069F7E72DE9F041002590460E46044607
:10128000202721E04069C043C0060CD421686FF0DC
:10129000100048612564256384F83D7084F83C5053
:1012A0000120BDE8F0812EB1FFF7D8F8A0EB0800CF
:1012B000B04209D954F8400F40F0200044F8040926
:1012C000677025700320ECE720684169C94349062F
:1012D000D8D40020E5E770B516460D4604461AE05E
:1012E0002046FFF74FFE08B1012070BD681C12D0E8
:1012F00025B1FFF7B3F8801BA8420CD954F8400F72
:1013000040F0200044F81009002020602021617383
:101310002073032070BD20684069C0430006DFD4FD
:10132000002070BD0B4810B5094901600A494160B1
:1013300000214FF480428160C0E903124161816164
:10134000C1610162FFF790F8002800D0FEE710BDF0
:10135000005400402C000020A0860100FEE77047EA
:101360000907090E002806DA00F00F0000F1E0205E
:1013700080F8141D704700F1E02080F800147047D9
:101380007047704710B5FFF7B5FABDE81040FFF79A
:10139000F4BD000030B5254893B00025016841F048
:1013A00080510160006800F0805011902048016871
:1013B00041F4804101600068022400F480401190F3
:1013C00001200090000401908001CDE90640082032
:1013D00008904FF4A870CDE9090404200B906846EA
:1013E000FFF71CFC00B1FEE70CA90F2081E83100DB
:1013F0004FF4A0500F904FF48050109005210CA88E
:10140000FFF72EFB00B1FEE7FFF7C2FB4FF47A7146
:10141000B0FBF1F0FFF79DFD0420FFF78DFD0022EA
:101420001146501EFFF7EAFA13B030BD40380240B3
:10143000007000401048016841F4700101600F48DD
:10144000016841F0010101600C4A0021083211607D
:1014500002680B4B1A400260031D0A4A1A600268B8
:1014600022F48022026005480C30016002495806CF
:10147000803908607047000088ED00E000380240C5
:10148000FFFFF6FE10300024FEE702E008C8121F3E
:1014900008C1002AFAD170477047002001E001C15D
:1014A000121F002AFBD17047D0ED044A70EEE40A07
:1014B000C0ED050A90ED034AD0ED091A90ED082A17
:1014C00001EE204AD0ED070A90ED003AD0ED063A41
:1014D000F0EE602A41EE610A51EE212A72EEC22A34
:1014E00001EE612A72EE832A41EE223AD0ED012A02
:1014F00042EE811A90ED021A33EE813A80ED0D3AF8
:1015000083EE831AC2EE032A30EE443A80ED0A1AC3
:10151000B0EE440AB0EE634A01EE030A01EE634AFC
:10152000C0ED0B2A80ED0C3A42EE834AB0EE603AF1
:1015300002EEC42A01EE603A80ED030AC0ED044ACF
:1015400080ED064A80ED073A42EEC31A80ED082A84
:10155000C0ED091A704700002DED028B92B0FFF725
:10156000D1F9FFF717FF3F48016841F080010160A2
:10157000016801F080010091016841F00201016001
:10158000006800F002000090FFF7CCFE00F07AF84F
:101590009FED350A384D8DED030A9FED340A642620
:1015A0008DED040A9FED320AA5F110048DED050AB8
:1015B0009FED300A9FED318A8DED070A8DED090A06
:1015C0008DED0A0A8DED0B0A8DED0C0A4FF0010925
:1015D0004FF0D10A062704F11608CDF800A0CDE996
:1015E000019601233B22D0212548FFF7BFF8CDE922
:1015F000005701233B22D02121480296FEF7B8FF75
:101600002888012340BA20806888432240BA60803D
:10161000A888D02140BAA080CDF80080CDE901761D
:101620001748FEF7A5FFB8F80000B0EE481A40BA18
:10163000E080B8F80200F2EE0E0A40BA2081B8F855
:10164000040040BA6081B4F9001003A800EE101A3B
:10165000B8EEC00AFFF728FF84ED030A0120FEF769
:1016600013FEBAE7303802406F12833AA69B443B20
:101670008FC2F53C00000000100000200000C842AE
:101680002C000020FEB50124642580208DE8310067
:1016900023466B22D0212548FFF768F80520FEF786
:1016A000F3FD0026009601236B22D0211F48CDE9CF
:1016B0000145FFF75BF807208DE83100012319226F
:1016C000D0211A48FFF752F8009601231A22D021A0
:1016D0001648CDE90145FFF749F8009601231B2282
:1016E000D0211248CDE90145FFF740F800960123CB
:1016F0001C22D0210D48CDE90145FFF737F80096AF
:1017000001236A22D0210948CDE90145FFF72EF8CF
:10171000009401236B22D0210448CDE90145FFF755
:1017200025F8BDE8FE400A20FEF7AEBD2C000020E3
:101730000000000000000000010203040607080981
:1017400000000000010203046817000800000020E8
:101750002C0000008A140008941700082C000020B8
:10176000540400009A14000800000000000000006B
:101770000000000000000000000000000000000069
:101780000000000001000000100000000000000048
:041790000024F4003D
:040000050800018965
:00000001FF
